:1000000000BE002085310100053003003D310100B4
:100010003D3101003D3101003D3101000000000093
:100020000000000000000000000000006D2701003B
:100030003D31010000000000012701003D310100B9
:100040004D2801004D2801004D2801004D280100D8
:100050004D2801004D2801004D2801004D280100C8
:100060004D2801004D2801004D2801004D280100B8
:100070004D2801004D2801004D2801004D280100A8
:100080004D2801004D2801004D2801004D28010098
:100090004D2801004D2801004D2801004D28010088
:1000A0004D2801004D2801004D2801004D28010078
:1000B0004D2801004D2801004D2801004D28010068
:1000C0004D2801004D2801004D2801004D28010058
:1000D0004D2801004D2801004D2801004D28010048
:1000E0004D2801004D2801004D2801004D28010038
:1000F0004D2801004D2801004D2801004D28010028
:1001000001F0FF01102A2BDB10F0070F08D010F8C8
:10011000013B013A8B422DD010F0070F42B3F6D1CC
:10012000F0B441EA012141EA014122F007047FF0E5
:1001300000070023F0E80256083C85EA010586EA3C
:10014000010685FA47F5A3FA87F586FA47F6A5FA78
:1001500087F68EB9EED1F0BC01F0FF0102F0070284
:1001600032B110F8013B013A83EA010313B1F8D12F
:100170000020704701387047002D06BF3546033810
:10018000073815F0010F07D1013015F4807F02BF49
:10019000013015F4C03F0130F0BC0138704700BF9A
:1001A00081F0004102E000BF83F0004330B54FEA28
:1001B00041044FEA430594EA050F08BF90EA020F95
:1001C0001FBF54EA000C55EA020C7FEA645C7FEA28
:1001D000655C00F0E2804FEA5454D4EB5555B8BF4B
:1001E0006D420CDD2C4480EA020281EA030382EABC
:1001F000000083EA010180EA020281EA0303362D4E
:1002000088BF30BD11F0004F4FEA01314FF4801C20
:100210004CEA113102D0404261EB410113F0004F32
:100220004FEA03334CEA133302D0524263EB4303E9
:1002300094EA050F00F0A780A4F10104D5F1200E87
:100240000DDB02FA0EFC22FA05F2801841F10001E2
:1002500003FA0EF2801843FA05F359410EE0A5F1B6
:1002600020050EF1200E012A03FA0EFC28BF4CF0E7
:10027000020C43FA05F3C01851EBE37101F000459D
:1002800007D54FF0000EDCF1000C7EEB00006EEBAA
:100290000101B1F5801F1BD3B1F5001F0CD3490834
:1002A0005FEA30004FEA3C0C04F101044FEA44528B
:1002B00012F5800F80F09A80BCF1004F08BF5FEA12
:1002C000500C50F1000041EB045141EA050130BDF2
:1002D0005FEA4C0C404141EB0101013C28BFB1F504
:1002E000801FE9D291F0000F04BF01460020B1FA4F
:1002F00081F308BF2033A3F10B03B3F120020CDA22
:100300000C3208DD02F1140CC2F10C0201FA0CF0FF
:1003100021FA02F10CE002F11402D8BFC2F1200C64
:1003200001FA02F120FA0CFCDCBF41EA0C0190401A
:10033000E41AA2BF01EB0451294330BD6FEA040463
:100340001F3C1CDA0C340EDC04F11404C4F120024E
:1003500020FA04F001FA02F340EA030021FA04F360
:1003600045EA030130BDC4F10C04C4F1200220FAB7
:1003700002F001FA04F340EA0300294630BD21FAF5
:1003800004F0294630BD94F0000F83F4801306BFBB
:1003900081F480110134013D4EE77FEA645C18BFAF
:1003A0007FEA655C29D094EA050F08BF90EA020F46
:1003B00005D054EA000C04BF1946104630BD91EA3E
:1003C000030F1EBF0021002030BD5FEA545C05D141
:1003D0004000494128BF41F0004130BD14F5800480
:1003E0003CBF01F5801130BD01F0004545F0FE41F4
:1003F00041F470014FF0000030BD7FEA645C1ABF29
:10040000194610467FEA655C1CBF0B46024650EA5F
:10041000013406BF52EA033591EA030F41F400218B
:1004200030BD00BF90F0000F04BF0021704730B511
:100430004FF4806404F132044FF000054FF00001E6
:1004400050E700BF90F0000F04BF0021704730B5A7
:100450004FF4806404F1320410F0004548BF40427C
:100460004FF000013EE700BF42004FEAE2014FEAD1
:1004700031014FEA02701FBF12F07F4393F07F4FAC
:1004800081F06051704732F07F4208BF704793F0AF
:100490007F4F04BF41F40021704730B54FF46074C2
:1004A00001F0004521F000411CE700BF50EA0102C5
:1004B00008BF704730B54FF000050AE050EA01026E
:1004C00008BF704730B511F0004502D5404261EBDE
:1004D00041014FF4806404F132045FEA915C3FF41F
:1004E000D8AE4FF003025FEADC0C18BF03325FEABC
:1004F000DC0C18BF033202EBDC02C2F1200300FA6D
:1005000003FC20FA02F001FA03FE40EA0E0021FA91
:1005100002F11444BDE600BF70B54FF0FF0C4CF47F
:10052000E06C1CEA11541DBF1CEA135594EA0C0F31
:1005300095EA0C0F00F0DEF82C4481EA030621EA6C
:100540004C5123EA4C5350EA013518BF52EA0335A7
:1005500041F4801143F4801338D0A0FB02CE4FF059
:100560000005E1FB02E506F00042E0FB03E54FF089
:100570000006E1FB03569CF0000F18BF4EF0010E81
:10058000A4F1FF04B6F5007F64F5407404D25FEA7D
:100590004E0E6D4146EB060642EAC62141EA555130
:1005A0004FEAC52040EA5E504FEACE2EB4F1FD0C72
:1005B00088BFBCF5E06F1ED8BEF1004F08BF5FEAF0
:1005C000500E50F1000041EB045170BD06F00046A2
:1005D00046EA010140EA020081EA0301B4EB5C044F
:1005E000C2BFD4EB0C0541EA045170BD41F4801147
:1005F0004FF0000E013C00F3AB8014F1360FDEBF6C
:10060000002001F0004170BDC4F10004203C35DA47
:100610000C341BDC04F11404C4F1200500FA05F3CA
:1006200020FA04F001FA05F240EA020001F000426B
:1006300021F0004110EBD37021FA04F642EB0601E1
:100640005EEA430E08BF20EAD37070BDC4F10C040B
:10065000C4F1200500FA04F320FA05F001FA04F2CF
:1006600040EA020001F0004110EBD37041F10001BB
:100670005EEA430E08BF20EAD37070BDC4F12005C6
:1006800000FA05F24EEA020E20FA04F301FA05F22E
:1006900043EA020321FA04F001F0004121FA04F2D6
:1006A00020EA020000EBD3705EEA430E08BF20EAA6
:1006B000D37070BD94F0000F0FD101F000464000E0
:1006C00041EB010111F4801F08BF013CF7D041EA62
:1006D000060195F0000F18BF704703F00046520066
:1006E00043EB030313F4801F08BF013DF7D043EA37
:1006F0000603704794EA0C0F0CEA135518BF95EAED
:100700000C0F0CD050EA410618BF52EA4306D1D173
:1007100081EA030101F000414FF0000070BD50EA92
:10072000410606BF1046194652EA430619D094EA1C
:100730000C0F02D150EA013613D195EA0C0F05D106
:1007400052EA03361CBF104619460AD181EA03015A
:1007500001F0004141F0FE4141F470014FF0000012
:1007600070BD41F0FE4141F4780170BD70B54FF0AD
:10077000FF0C4CF4E06C1CEA11541DBF1CEA13552D
:1007800094EA0C0F95EA0C0F00F0A7F8A4EB05040F
:1007900081EA030E52EA03354FEA013100F0888006
:1007A0004FEA03334FF0805545EA131343EA1263CF
:1007B0004FEA022245EA111545EA10654FEA002684
:1007C0000EF000419D4208BF964244F1FD0404F53D
:1007D000407402D25B084FEA3202B61A65EB030599
:1007E0005B084FEA32024FF480104FF4002CB6EB56
:1007F000020E75EB030E22BFB61A754640EA0C00D6
:100800005B084FEA3202B6EB020E75EB030E22BF15
:10081000B61A754640EA5C005B084FEA3202B6EB56
:10082000020E75EB030E22BFB61A754640EA9C0015
:100830005B084FEA3202B6EB020E75EB030E22BFE5
:10084000B61A754640EADC0055EA060E18D04FEAA3
:10085000051545EA16754FEA06164FEAC30343EA43
:1008600052734FEAC2025FEA1C1CC0D111F4801F10
:100870000BD141EA00014FF000004FF0004CB6E709
:1008800011F4801F04BF01430020B4F1FD0C88BFA8
:10089000BCF5E06F3FF6AFAEB5EB030C04BFB6EBB3
:1008A000020C5FEA500C50F1000041EB045170BDA6
:1008B0000EF0004E4EEA113114EB5C04C2BFD4EBD3
:1008C0000C0541EA045170BD41F480114FF0000E57
:1008D000013C90E645EA060E8DE60CEA135594EAD3
:1008E0000C0F08BF95EA0C0F3FF43BAF94EA0C0FD6
:1008F0000AD150EA01347FF434AF95EA0C0F7FF44B
:1009000025AF104619462CE795EA0C0F06D152EA9E
:1009100003353FF4FDAE1046194622E750EA410682
:1009200018BF52EA43067FF4C5AE50EA41047FF493
:100930000DAF52EA43057FF4EBAE12E74FF0FF3CF8
:1009400006E000BF4FF0010C02E000BF4FF0010CC9
:100950004DF804CD4FEA410C7FEA6C5C4FEA430C42
:1009600018BF7FEA6C5C1BD001B050EA410C0CBF91
:1009700052EA430C91EA030F02BF90EA020F0020F3
:10098000704710F1000F91EA030F58BF994208BF5A
:1009900090422CBFD8176FEAE37040F00100704717
:1009A0004FEA410C7FEA6C5C02D150EA013C07D16E
:1009B0004FEA430C7FEA6C5CD6D152EA033CD3D0B9
:1009C0005DF8040B704700BF8446104662468C46B3
:1009D0001946634600E000BF01B5FFF7B7FF0028E6
:1009E00048BF10F1000F01BD4DF808EDFFF7F4FF0F
:1009F0000CBF012000205DF808FB00BF4DF808ED9A
:100A0000FFF7EAFF34BF012000205DF808FB00BFBC
:100A10004DF808EDFFF7E0FF94BF012000205DF8DE
:100A200008FB00BF4DF808EDFFF7CEFF94BF012093
:100A300000205DF808FB00BF4DF808EDFFF7C4FF8C
:100A400034BF012000205DF808FB00BF4FEA4102DF
:100A500012F5001215D211D56FF47873B3EB625210
:100A600012D94FEAC12343F0004343EA505311F037
:100A7000004F23FA02F018BF404270474FF00000C9
:100A8000704750EA013005D111F0004008BF6FF007
:100A9000004070474FF00000704700BF4A0011D27D
:100AA00012F5001211D20DD56FF47873B3EB6252C8
:100AB0000ED44FEAC12343F0004343EA505323FAD4
:100AC00002F070474FF00000704750EA013002D149
:100AD0004FF0FF3070474FF0000070477BB972B99C
:100AE0000029BEBF00204FF0004106E008BF0028EB
:100AF0001CBF6FF000414FF0FF3000F075B8ADF152
:100B0000080C6DE904CE002909DB002B1ADB00F08C
:100B1000ADF8DDF804E0DDE9022304B0704740429F
:100B200061EB4101002B1BDB00F0A0F8DDF804E0D5
:100B3000DDE9022304B0404261EB4101524263EB24
:100B400043037047524263EB430300F08FF8DDF834
:100B500004E0DDE9022304B0404261EB410170474B
:100B6000524263EB430300F081F8DDF804E0DDE975
:100B7000022304B0524263EB4303704753B94AB9AE
:100B8000002908BF00281CBF4FF0FF314FF0FF3095
:100B900000F02AB8ADF1080C6DE904CE00F066F85B
:100BA000DDF804E0DDE9022304B07047D0B50C4B5A
:100BB000002206460F46FFF7AFFCFFF76FFF044623
:100BC000FFF730FC074B0022FFF7A6FC02460B465E
:100BD00030463946FFF7E8FAFFF760FF2146D0BDFF
:100BE0000000F03D0000F041704700BF4FEA410CAB
:100BF0007FEA6C5C02D150EA013C0AD14FEA430C17
:100C00007FEA6C5C02D152EA033C02D14FF0000053
:100C100070474FF001007047430803F05533C01A86
:100C200000F03333800800F03330184400EB10102C
:100C30004FF0013300F00F305843000E704738B5C5
:100C40000022002304460D46FFF7D8FE28B92046AF
:100C50002946BDE83840FFF7A9BF204605F100410D
:100C6000FFF7A4FF404261EB410138BD2DE9F04799
:100C700086468C460846089E154674461946002B43
:100C800040F0C2808542B2FA82F245D94AB1C2F13F
:100C9000200300FA02FC2EFA03F3954043EA0C0C01
:100CA00094404FEA154EA8B2BCFBFEF8230C0EFB95
:100CB00018CC08FB00F943EA0C43994528D9EB18F6
:100CC00008F1FF3704D2994502D9A8F102072B4455
:100CD000A3EB0903A4B2B3FBFEFC0EFB1C330CFB1D
:100CE00000F044EA0344A04214D92C190CF1FF335C
:100CF00004D2A04202D9ACF102032C44241A43EAE4
:100D000007401EB1D440002334607360BDE8F08713
:100D10004746DDE76346F1E792BB431B01214FEAFB
:100D2000154EAFB2B3FBFEFC200C0EFB1C330CFBCC
:100D300007F840EA0343984562D9EB180CF1FF30FD
:100D400004D2984502D9ACF102002B44A3EB08036E
:100D5000A4B2B3FBFEFC0EFB1C330CFB07F744EA0A
:100D60000344A7424ED92C190CF1FF3304D2A742F9
:100D700002D9ACF102032C44E41B43EA0040C0E773
:100D8000C2F1200320FA03F1954090402EFA03F3BC
:100D900003434FEA154EAFB2B1FBFEFC0EFB1C1035
:100DA000190C0CFB07F841EA0041884504FA02F4EB
:100DB00022D969180CF1FF3004D2884502D9ACF170
:100DC00002002944A1EB08019BB2B1FBFEFC0EFB23
:100DD0001C110CFB07F743EA01439F420ED9EB18A5
:100DE0000CF1FF3104D29F4202D9ACF102012B4435
:100DF000DB1B41EA004192E76046E3E76146F7E723
:100E00006046A3E76346B7E7834206D916B90021D7
:100E100008467BE7C6E900E0F9E7B3FA83F78FB944
:100E2000834201D3724508D8BEEB020460EB030392
:100E300001209C461EB9002168E73846FAE7C6E95A
:100E4000004CF8E7C7F1200CBB4022FA0CF41C431D
:100E50002EFA0CF120FA0CF3B84001434FEA144982
:100E60000EFA07F5B3FBF9F81FFA84FE09FB1830F8
:100E70000B0C08FB0EFA43EA00439A4502FA07F20C
:100E800040D9E31808F1FF3004D29A4502D9A8F1FD
:100E900002002344A3EB0A0389B2B3FBF9F809FB70
:100EA000183308FB0EFE41EA03418E452CD9611828
:100EB00008F1FF3304D28E4502D9A8F10203214480
:100EC00043EA0040A0FB0298A1EB0E014145CE464B
:100ED000434602D306D14D4504D2B9EB020E68EB6E
:100EE00004030138002EA6D0B5EB0E0261EB03011E
:100EF00001FA0CFC22FA07F34CEA0303F940C6E9B5
:100F0000003198E74046C5E74346D9E710F8012B82
:100F100011F8013B012A28BF9A42F7D0D01A704736
:100F2000034613F8012B002AFBD1181A0138704729
:100F300030B583B0144D154C2B680022802120461B
:100F40001FF046FE00222968204638F092FD002559
:100F500000950BA3D3E90023204638F023FD03229C
:100F60002946204638F05BFC094B186803F040F82E
:100F700001222946204638F037FC03B030BD00BFBF
:100F800000205FA0120000008C180020F008002054
:100F900014000020000000002DE9F84F0446532AF9
:100FA00065D0572A61D0002508683AF022F9002D53
:100FB0005FD00022324BFFF7AFFA06460F46002201
:100FC000304BFFF7D3FBFFF741FD05B2642005FB73
:100FD00000F0FFF737FA02460B4630463946FFF776
:100FE000E3F806460F4621F000494946FFF756FD53
:100FF0005FFA80FA5046FFF725FA02460B46304664
:101000004946FFF7D1F800221F4BFFF785FA21F080
:10101000B9FFFFF743FD5FFA80FB2846FFF712FA9E
:1010200015A3D3E90023FFF777FA8046894612A378
:10103000D3E9002330463946FFF76EFA0022124BFF
:10104000FFF794FB02460B4640464946FFF7AEF8D1
:1010500021F098FFFFF7FAFC258084F802A084F8BD
:1010600003B060602046BDE8F88F01259CE70125AC
:101070009AE70022054B9EE70000000080842E4185
:101080000000F0BF0000594000004E400000F03F5B
:10109000F0B593B004460D4627F05FFF002363646C
:1010A0002946684629F03CFE6946204628F006FAA3
:1010B0000BA829F0D6FC686F3AF09BF806460F465D
:1010C00000220023FFF79AFC70B909A3D3E900239B
:1010D00030463946FFF720FA21F054FFFFF7DEFCD7
:1010E0006064204613B0F0BD00260027EDE700BF86
:1010F000E544BB0A293F0A4010B58CB00C4609688C
:10110000684629F098FA1649684627F04EFC98B9C7
:10111000144C214606A829F059FF06A9124828F0C8
:1011200002FE06A829F09DFC204602F061FF6846F9
:1011300029F097FC0CB010BD236818683AF059F8F4
:1011400005A3D3E90023FFF7E7F9FFF7A7FC04465F
:10115000DFE700BFAFF300800000000080842E4175
:10116000E4D40300F014D700ECD403000000000026
:101170002DE9F043A9B00C461F4610462CF01EF98D
:101180000546214604A829F021FF29460AA829F08E
:101190001DFF0AAB364A04A9364829F075F80AA89B
:1011A00029F05FFC04A829F05CFC2046FFF73AF91F
:1011B0002BA3D3E90023FFF7D9FA21F0E3FEFFF7D1
:1011C0006DFC42F2107303FB00F5641B2846FFF729
:1011D00029F902460B4624A1D1E90001FFF7C6FA1E
:1011E000804689462046FFF72DF942464B46FFF7D9
:1011F00093F921F0C7FEFFF729FC06460146384661
:101200002BF01CFE0746294610A829F0DFFE2146D8
:1012100016A829F0EBFE1CAC3146204629F0E6FE6C
:1012200022AD3946284629F0E1FE0395124B029380
:101230000194124B009316AB114A10A911482AF0E1
:101240008FFD284629F00DFC204629F00AFC16A83F
:1012500029F007FC10A829F004FC29B0BDE8F083B0
:10126000000000000088C3400000000065CDCD41B3
:10127000F4D80300FCD8030028D9030034D90300B4
:101280000CD9030018D903002DE9F047074638A30D
:10129000D3E90023D0E90001FFF7C4FB002838D1CF
:1012A0004FF4807508240026D7E900890022002326
:1012B00040464946FFF7C0FB38B12FA3D3E90023CE
:1012C00040464946FFF7A4FB58BB3046BDE8F087CF
:1012D0006D10013C64B2002CE6DBD7E900894FEACF
:1012E000C40A274B03EBC403D3E900234046494615
:1012F000FFF798FB0028EBD0224B9A44DAE9002351
:1013000040464946FFF708F9C7E900012E4436B2C6
:10131000DEE74FF4807508240026DCE76D10013C01
:1013200064B2002CD1DBD7E900894FEAC40A154921
:1013300001EBC4010022144BD1E90001FFF7ECF8E6
:1013400002460B4640464946FFF758FB0028E5D0C9
:101350000B4B9A44DAE9002340464946FFF7DCF894
:10136000C7E90001761B36B2D8E700BFAFF30080B3
:1013700000000000D0126341F168E388B5F8E43E54
:10138000A0C9030058C90300000024400000000069
:101390002DE9F04F85B006460F46154698468368FE
:1013A0005B6802AA984700282FDB029CDDF80C90AE
:1013B000A5FB04AB05FB09BB19A3D3E900235046E9
:1013C0005946FFF7DBFB05464FF0FF335345164BFD
:1013D00073EB0B031CD3A8FB04A408FB094410A364
:1013E000D3E9002350462146FFF7C8FB03464FF0E0
:1013F000FF3252450C4AA2410DD3BDF8382000926D
:101400002A463946304632F0B4FA05B0BDE8F08FCE
:101410006FF08500F9E76FF08500F6E7AFF3008025
:1014200000CA9A3B00000000FFC99A3B0000000080
:101430002DE9F04F91B005460F461646002209A946
:10144000304622F0ABFD099B1B78002B36D10446B9
:10145000A1B2BB681B690AAA3846984700282ADB54
:10146000382C42D8E21E082A05D840F21113D34086
:1014700013F0010F56D10A98FEF7E4FF06460F4617
:101480000B98FEF7DFFF50A3D3E90023FFF76EF9B7
:1014900002460B4630463946FEF788FECDE902018A
:1014A0004B4B53F82430009323464A4A08212846E0
:1014B0002FF09AFF002011B0BDE8F08F0024382CE7
:1014C00008D8434B53F824103046FFF71FFD08B1EE
:1014D0000134F4E7392CBBD133463F4A0121284679
:1014E0002FF082FF6FF08500E5E70A98FEF7AAFF6C
:1014F00006460F460B98FEF7A5FF33A3D3E900235A
:10150000FFF734F902460B4630463946FEF74EFEE9
:10151000CDE900012346314A082128462FF064FF17
:101520000020C8E70A98FEF78DFF06460F460B9885
:10153000FEF788FF24A3D3E90023FFF717F902463B
:101540000B4630463946FEF731FE82468B460C98F4
:10155000FEF778FF06460F460D98FEF773FF1AA3B5
:10156000D3E90023FFF702F902460B46304639461D
:10157000FEF71CFE06460F460E98FEF763FF8046F8
:1015800089460F98FEF75EFF0FA3D3E90023FFF70C
:10159000EDF802460B4640464946FEF707FECDE908
:1015A0000601CDE90467CDE902AB094B53F82430BD
:1015B000009323460A4A082128462FF015FF0020F1
:1015C00079E700BFAFF300800000000080842E4167
:1015D0002C02002024190400E81804000419040057
:1015E00040190400000000002DE9F04FD9B0044676
:1015F0000D46002900F01B81D0F800800846FEF758
:1016000011FF8FA3D3E90023FFF7B0F806460F467A
:101610004046FEF707FF32463B46FFF7A7F8FFF7C5
:101620003DFA82466068FEF7FDFE32463B46FFF714
:101630009DF8FFF733FA8146A068FEF7F3FE3246C5
:101640003B46FFF793F8FFF729FA8046A069FEF7BB
:10165000E9FE32463B46FFF789F8FFF71FFA83465B
:10166000E6682069331861690B4400228DF80B206D
:101670008DF80A208DF809208DF808209D4240F24F
:10168000DB80EF1ACBB1642202FB06FCBCFBF3FC4F
:101690008DF80BC002FB00F0B0FBF3F08DF80A00F0
:1016A00002FB01F1B1FBF3F18DF80910E16902FBD6
:1016B00001F1B1FBF3F18DF80810226803A904A829
:1016C00033F0B2FE51460AA829F080FC5E4DDFF8E7
:1016D0007CA1CDF800A00AAB2A4604A95C4833F0EF
:1016E00050FE0AA829F0BDF904A829F0BAF96268E9
:1016F00003A910A833F098FE494616A829F066FC05
:10170000CDF800A016AB2A4610A9524833F039FE96
:1017100016A829F0A6F910A829F0A3F9A26803A930
:101720001CA833F081FE414622A829F04FFCCDF8D9
:1017300000A022AB2A461CA9474833F022FE22A86B
:1017400029F08FF91CA829F08CF9E26803A928A8D0
:1017500033F06AFE414E00960DF10B032A4628A98C
:101760003F4833F036FE28A829F07BF9226903A907
:101770002EA833F059FE00960DF10A032A462EA931
:10178000384833F026FE2EA829F06BF9626903A9C8
:1017900034A833F049FE00960DF109032A4634A916
:1017A000314833F016FE34A829F05BF9A26903A989
:1017B0003AA833F039FE594640A829F007FCCDF885
:1017C00000A040AB2A463AA9284833F0DAFD40A8E9
:1017D00029F047F93AA829F044F9E26903A946A893
:1017E00033F022FE009602AB2A4646A9204833F089
:1017F000F0FD46A829F035F9226A03A94CA833F078
:1018000013FE4CA91B4833F0A5FC4CA829F029F97C
:101810003A4603A952A833F007FE52A9164833F0FE
:1018200099FC52A829F01DF959B0BDE8F08F8B46FC
:10183000884689468A4613E7002723E7AFF30080EE
:101840000000000080842E41E82E0400B42B040028
:10185000982B0400BC2B0400D82B0400102C04008F
:10186000F42B0400142C0400302C04004C2C040035
:10187000682C0400842C0400A02C0400000000004C
:101880002DE9F04F83B0174698460D9E9DF838B06D
:1018900000293CD190F868301A3300EB83035B6871
:1018A0000025DC186D41E41845F100056A0142EAA3
:1018B000D4626101641845EB0205E41845F10005A6
:1018C00087A3D3E90023F0077110FFF707F9034658
:1018D00005FB00F004FB0101A3FB04321144DB0F04
:1018E00043EA41031C1945EBE375794BBB424FF0CA
:1018F0000D0373EB080321D2764BBB424FF0140368
:1019000073EB08031DD2734F4FF0140819E090F8E1
:1019100069301A3300EB830043680025DC186D4101
:10192000E41845F100056A0142EAD46261016418D5
:1019300045EB0205E41845F10005C1E7664F4FF09D
:101940000D0822462B4638464146FFF717F9064652
:1019500000900E2807D84FEA051848EA14782701A6
:101960003F1B68EB05085A2E10D9231945EB0502D9
:101970001B1945EB02024FEA021848EA13781F01CF
:10198000FF1A68EB0208FF1948EB0808BBF1000FCB
:101990006DD022462B4638464146FFF7EFF81F46EA
:1019A000944619467B0143EAD2635201B2EB0C0222
:1019B00063EB01035B0243EAD253520212EB0C02C7
:1019C00043EB0703990141EA92619001801A61EBB0
:1019D000030110EB0C0022462B4641EB0701FFF7F9
:1019E000CDF80146DFF8F480F7014FEAC119B9FBE1
:1019F000F8F303EBC61AAAF5007A08FB13990191D4
:101A0000A1FB040C4246002301FB05C1FFF7B6F819
:101A1000009AA2FB043405FB0644181844EB0101AC
:101A20000C9AC2F800A0C2F80490C2F80880BBF17A
:101A3000000F19D0FA0E7B01DB1B62F1000252028B
:101A400042EAD3525B02DB1942F10002910141EA02
:101A500093619801C01A61EB0201C01941F10001C4
:101A6000019B181841F1000103B0BDE8F08F224638
:101A70002B4638464146FFF781F81F4694461946E3
:101A80007B0143EAD2635201B2EB0C0263EB010328
:101A90005B0243EAD253520212EB0C0243EB070300
:101AA000990141EA92619001801A61EB030110EB08
:101AB0000C0022462B4641EB0701FFF75FF8014679
:101AC00010B1DFF818808FE74FF001088CE700BFF6
:101AD000FF5747F800046BF4005847F840420F00E6
:101AE00000CA9A3B000000002DE9704382B0054611
:101AF0008022102137F057FE80221121284637F02E
:101B000052FE80221221284637F04DFE80221321FA
:101B1000284637F048FE80221421284637F043FE3D
:101B200080221521284637F03EFE802216212846C5
:101B300037F039FE80221721284637F034FE0C2278
:101B40001021284637F02FFE0C221121284637F0AD
:101B50002AFE0C221221284637F025FE0C221321E2
:101B6000284637F020FE0C221421284637F01BFEB1
:101B70000C221521284637F016FE0C221621284685
:101B800037F011FE0C221721284637F00CFE0FF219
:101B9000E009D9E900890024009442464B462846D2
:101BA00037F000FF0126009642464B46284637F0A4
:101BB000F9FE6C72AC72EC722C736C73AC73EE73D6
:101BC0002E7422462146284637F047FE22463146EB
:101BD000284637F042FE22460221284637F03DFED5
:101BE00022460321284637F038FE224604212846A3
:101BF00037F033FE22460521284637F02EFE3246C6
:101C00000621284637F029FE32460721284637F0BC
:101C100024FE2246A221284637F0C5FD2246A321F4
:101C2000284637F0C0FD2246A421284637F0BBFDE8
:101C30002146284637F0C1FD3146284637F0BDFD24
:101C400011E0E31C05EBC30300200021C3E9000100
:101C500000222146284637F0C7FD2B19002283F8C1
:101C60007E200134E4B2072CEBD902B0BDE87083CA
:101C700000205FA0120000002DE9F0471D46DDF8AE
:101C80002080099FDDF82890614B93424FF00503B7
:101C9000AB410AD314465F4B93424FF00003AB4174
:101CA00005D35D4C0025AA4609E0594C05255B4B40
:101CB000A3424FF00303AB4117D34FF0000A58EA99
:101CC000070338D1BAF1000F14D122462B464EA19A
:101CD000D1E90001FEF752FF0646431F0B4307D030
:101CE0000738084307D1062605E04FF0010AE6E76A
:101CF000042600E004260023A6FB048706FB0577E4
:101D000019460122BAF1000F78D1DB01B3FBF2F0E2
:101D100000EBC616A6F5007602FB1033C9F800608A
:101D2000C9F80430C9F8082009B944463D462046A0
:101D30002946BDE8F08722462B4640463946FEF745
:101D40001DFF064605281DD8002318EB070450D2B6
:101D50001C44334BA3FB042121F0010202EB51028E
:101D6000A41AB8EB040467F100024FF0AA3504FB93
:101D700005F503FB0255A4FB03431D44640844EA34
:101D8000C5746D08B0F5E16F08D94FF4E162002326
:101D900040463946FEF7F2FE04460D4622462B46E3
:101DA00040463946FEF7EAFE9C4613464FEA4C1180
:101DB00041EAD2615201D21A61EB0C01490241EAB7
:101DC000D2515202D21841EB0C014FEA811E4EEA69
:101DD000926E9001801A6EEB0101C01822462B46CC
:101DE00041EB0C01FEF7CAFE034620B101210D4A6A
:101DF00088E70123ACE701210A4683E7012200239B
:101E00001E468BE7AFF3008000046BF41400000063
:101E100000C11A3D7FF0FA0280F0FA02FFD5117E70
:101E2000ABAAAAAA40420F002DE9F0471D46DDF8F3
:101E300020A0DDF82490DDF82880394B93424FF044
:101E40000303AB4109D31446364B93424FF00003D2
:101E5000AB4104D3344C002501E0314C03255AEA50
:101E600009031CD022462B4650464946FEF786FE03
:101E700017461E4613434CD122462B465046494630
:101E8000FEF77CFE831FF82B33D8C0B2C8F80000E1
:101E90000026C8F80460C8F80860012729E0224637
:101EA0002B461DA1D1E90001FEF768FE034600F0B4
:101EB000010202B1431C052B03D9FE2B02D9FE23DC
:101EC00000E00623A3FB047603FB0566174ABA422B
:101ED0004FF01402B24110D2023BA3FB047603FB85
:101EE0000566DBB2C8F800300023C8F80430C8F833
:101EF000083038463146BDE8F0870D4ABA424FF007
:101F00000D02B241EDD30233A3FB047603FB056659
:101F1000E7E700273E46ECE7002375EE14000000DB
:101F200000D6117E7FF0FA0280F0FA0200046BF412
:101F3000FF5747F8000000002DE9F0438FB004463A
:101F4000CDE904239DF85850052D00F2F280049B42
:101F5000013B059A42F1FF32A74999424FF0000335
:101F6000934103D3A54A0023CDE90423049BA44A4B
:101F70009A42059A4FF00503934104D29AA3D3E9FC
:101F80000023CDE904230499059A9E4B8B424FF020
:101F90000203934180F08D80002301E00133DBB226
:101FA000052B16D81946DA1C04EBC20054F832206F
:101FB0004068944E96424FF002028241EED2AB420C
:101FC000ECD02144497A6219527A9142E6D101203B
:101FD0006CE0631993F87E30EBB1DDE90401EB1C92
:101FE00004EBC303C3E900010BAB029300220023FF
:101FF000CDE9002302460B462046FFF73DFE814611
:10200000884663195B7A009302460B46204637F0F8
:10201000C9FC002617E001222946204637F0E4FBE0
:102020006319012283F87E20D7E7002303930297E8
:1020300001930A9B009308AB0CCB3146204637F046
:1020400073FD0136F6B2052E2AD8F71C04EBC70241
:1020500054F83730576853EA0702F2D0A219517A80
:102060006219527A9142ECD10693079706A920464D
:102070001EF0E6FD074608AB0293CDF80090CDF8C0
:102080000480DDE906232046FFF7F6FD069B5E4A45
:102090009A42079A4FF003039341C6D20123C5E742
:1020A0002544697A204637F088FB00200FB0BDE850
:1020B000F083EB1C04EBC30044F833104260631957
:1020C00093F87E30FBB104A920461EF0B9FD064608
:1020D00063195B7A0BBB0BAB0293D4E91623CDE9F2
:1020E0000023DDE904232046FFF7C6FD0023039308
:1020F000029601930D9B00930BAB0CCB2946204617
:1021000037F012FDD1E701222946204637F06CFB5B
:102110006319012283F87E20D5E70BAB0293D4E943
:102120001823CDE90023DDE904232046FFF7A4FDB1
:10213000DCE7049B013B059A42F1FF3233499942A7
:102140004FF00003934103D32C4A0023CDE904232D
:10215000049B2D4A9A42059A4FF00303934104D2FF
:1021600023A3D3E90023CDE90423062D1DD0A36CBE
:10217000E26C134300F09780D4E91889DDE9046725
:1021800032463B4640464946FEF7F8FC134340F0D2
:10219000B98032463B4640464946FEF7EFFC00F028
:1021A0000100002869D0012080E7236D626D134390
:1021B00044D0D4E91867DDE9048942464B463046ED
:1021C0003946FEF7DBFC134340F09A8042464B460B
:1021D00030463946FEF7D2FC00F00100C0B10120C4
:1021E00064E700BFAFF3008000C11A3D05000000A6
:1021F000FFD5117E030000007E1A0600801A06003B
:1022000000C11A3D00E40B54FFD5117E96281C0036
:10221000EB1C04EBC303C3E9008904A920461EF0AC
:10222000ABFD07460BAB0293D4E91823CDE900239D
:10223000DDE904232046FFF7F7FD53E0E91C04EB3A
:10224000C101DDE90423C1E9002304A920461EF0F1
:1022500093FD07460BAB029300220023CDE9002338
:10226000DDE904232046FFF7DFFD02460B4601218E
:102270000091204637F096FB34E0EB1C04EBC303DF
:10228000C3E9006704A920461EF076FD07460BABA4
:102290000293D4E91823CDE90023DDE90423204685
:1022A000FFF7C2FD1EE0E91C04EBC101DDE90423D8
:1022B000C1E9002304A920461EF05EFD07460BABD2
:1022C000029300220023CDE90023DDE90423204608
:1022D000FFF7AAFD02460B466119497A0091204694
:1022E00037F060FB00260396029701960D9B009342
:1022F0000BAB0CCB2946204637F016FC3046D5E612
:102300000120D3E60120D1E62DE9F041C1F30A57BF
:10231000A7F2FF36132E02460B460C4605468046B2
:1023200035DC002E17DA34A3D3E90023FDF73EFF96
:1023300000220023FEF780FB50B1002C57DA24F076
:1023400000442C430025AC422D4C08BF4FF0004404
:1023500023462A4624E02B4F374101EA070C5CEA6A
:10236000000C1DD024A3D3E90023FDF71FFF00229A
:102370000023FEF761FB0028EAD0002CBEBF4FF41B
:1023800080133341E41824EA07040025E0E7332EE4
:102390000ADDB6F5806F03D1FDF708FF02460B4654
:1023A00010461946BDE8F081A7F213474FF0FF3CF5
:1023B0002CFA07F70742F3D00FA3D3E90023FDF768
:1023C000F5FE00220023FEF737FB0028C0D0002CCA
:1023D0000ADA142E01D1013406E0C6F134060123D5
:1023E000B3401D444545F6D325EA0705B0E700256F
:1023F0002C46ADE7AFF300809C7500883CE4377E47
:102400000000F0BFFFFF0F002DE9F04F9DB01F4609
:1024100000231893994B0E921D68824628460C465D
:10242000FEF77EFD4FF0000883464FF0000922467C
:10243000179213782B2B3BD02CD80D2B26D8082B9A
:1024400026D8002B2FD000230C93179E3378302BE7
:1024500072D1737803F0DF03582B63D10C9B019387
:1024600018AB0093864A029719AB17A9504621F082
:10247000CBFD10F00705044635D0062D1AD10E9B72
:102480000BB101361E604046494637E0202BDAD1B9
:102490000132CDE72D2BD6D101230C93531C17937A
:1024A0005378002BD1D10E9B002BECD01C60EAE7B7
:1024B0000023F2E7189A3AB135211AA839F05BFBEC
:1024C0001899504622F032F8013D199A042D06D889
:1024D000DFE805F0170320231700DDE91A8921073B
:1024E00001D549F000490E9B13B10E9A179B13605A
:1024F0000C9B002BC7D0404609F100411DB0BDE840
:10250000F08FDDE91A8302F2334223F4801343EAA9
:102510000259E4E7DFF86C91E1E76FF000494FF012
:10252000FF38DCE7179B5A1C17925B78302BF9D0E9
:10253000002BD8D0012300E000230027CDE9057748
:102540000493179B0A930A2217980678A6F1300382
:10255000D9B2092924D95A46294639F043F8002826
:102560002DD00020059D324683460346652A01D0C2
:10257000452A13D11DB9049A024394D00025179C13
:10258000621C179262782B2A6FD02D2A73D04FF0DD
:10259000000CA2F1300109297AD91794002699E09C
:1025A00005990829DDBF069902FB0133069302FB5A
:1025B0000737059B0130013305931790C4E7179B3C
:1025C00003EB0B02179213F80B20059BABB383466A
:1025D0001D46A2F13003092B12D90123C6E7179B30
:1025E0005A1C17925A780130302AF8D0A2F13103E0
:1025F000082B00F2EA84179B0A93834600200546C5
:10260000303A00F1010312D09B4400EB050C2B463D
:102610000A21634513D12B18082B05F10105054448
:1026200019DC06990A2303FB012306930023179A5A
:10263000511C179152781846CBE70598D4E7082B20
:1026400003F1010303DC069E4E430696E1E7102BDF
:10265000D8BF4F43DDE70F2BDCBF0A2303FB07275F
:10266000E4E74FF0000B012385E74FF0000CA21CBC
:102670001792A2788DE74FF0010CF8E7A84204000A
:10268000904204000000F07F179A511C1791527875
:10269000302AF9D0A2F1310108293FF67FAF303A54
:1026A0000792179A0D92179A561C17965278A2F114
:1026B000300EBEF1090F38D90D99761A082E44F65E
:1026C0001F6603DC07998E42A8BF0E46BCF1000FBF
:1026D00000D07642002D4FD1049908437FF403AF18
:1026E000002B7FF4E0AE692A29D026DC492A26D0C7
:1026F0004E2A7FF4D8AE9D4917A839F0E1F800289A
:102700003FF4D1AE179B1B78282B2FD198491AAADA
:1027100017A839F0E9F8052828D11B9BDDF8688057
:1027200043F0FF4949F4E009DDE6079E0A2101FB79
:102730000621A1F130020792B5E76E2AD9E78D494B
:1027400017A839F0BDF800283FF4ADAE179B8A49B1
:10275000013B17A8179339F0B3F810B9179B013351
:102760001793DFF818924FF00008BCE6844822F077
:1027700047FE80468946B6E6A6EB0B030F93059B02
:102780000698002B08BF2B46102D05932C46A8BF9A
:102790001024FDF747FE092D8046894614DCA6EB80
:1027A0000B03002B3FF49FAEA6EB0B0379DD162B3A
:1027B00045DC0F9B734901EBC301D1E9000142469F
:1027C0004B46FDF7A9FED4E76E4B03EBC40353E978
:1027D0001223FDF7A1FE804638468946FDF722FE0A
:1027E00002460B4640464946FDF7E0FC0F2D804669
:1027F0008946D4DD2C1BA6EB0B031C44002C26DCE5
:1028000000F0A380644214F00F020AD05D4B03EB8A
:10281000C20340464946D3E90023FDF7A7FF80469F
:102820008946241100F091801F2C40F3B3802223AD
:102830004FF000084FF00009CAF8003053E6C5F128
:102840002503A6EB0B02934219DA2C1B144414F057
:102850000F030AD04B4901EBC30142464B46D1E975
:102860000001FDF759FE8046894634F00F046CD014
:10287000B4F59A7F41DD2223CAF8003071E7414C5C
:10288000C5F10F0504EBC50142464B46D1E90001F5
:10289000FDF742FE0F9B5D1B04EBC504D4E900234A
:1028A0008FE71633A6DB374BABEB060203EBC20315
:1028B000D3E9002340464946FDF758FF59E7002376
:1028C00006932223DFF8B490CAF800304FF00008D6
:1028D0001899504621F02AFE0699504621F026FE0E
:1028E0000599504621F022FE1099504621F01EFE17
:1028F0000799504621F01AFEF5E50023224F049374
:10290000241140464946012C22DC0BB18046894601
:10291000049B1D49A9F1547901EBC30142464B4682
:10292000D1E90001FDF7F8FD144B0A460B401749A9
:102930008B4280469FD8A1F580118B4286BFDFF87D
:1029400050904FF0FF3802F15479002304934CE08B
:10295000E20704D5D7E90023FDF7DEFD0123049A41
:102960000132049264100837CDE700BFC44504006B
:102970007C420400BC450400824C04000000F07F4F
:102980008A4E040038CA030010CA03000000A07C6D
:10299000FFFFEF7F14F0100318BF6A23AB4F0493BF
:1029A000404649460023E20704D5D7E90023FDF756
:1029B000B3FD0123641007F10807F4D10BB1804681
:1029C0008946049B43B1C9F30A52C2F16B03002B41
:1029D000494650DC6A2304930022002340464946BE
:1029E000FEF702F800287FF422AF069B0093059AB9
:1029F0000A992B46504621F001FE109000283FF422
:102A00003AAF0F9BABEB060B002BB4BF5B4600232A
:102A100011930F9B23EAE373149300230793059309
:102A2000109B5046596821F041FD069000283FF464
:102A300048AF109B1A69023203F10C0192000C306E
:102A400038F0F2FB1AAB019319AB009342464B46A8
:102A50005046CDE90A8922F09DF8189000283FF4ED
:102A600030AF0121504621F013FE05900346D0B946
:102A70000023059325E71F2B0EDD342BDEBF4FF01F
:102A8000FF33C2F14B0293404FF00008CCBF4FF030
:102A90005C7903EA01099DE74FF0FF3202FA03F384
:102AA00003EA080896E7199C1A9A002CABBF119B01
:102AB000149B149E119FACBFE7181E1B049BE41AC5
:102AC0001444634B013C9C42C2F1360280F2B28056
:102AD0001B1B1F2BC2BFC4F17F4404F57F0404F508
:102AE0007B444FF00105C8BFE234A2EB0302DABF1A
:102AF0009D40002405FA04F407EB020B049B5F459C
:102B000016441E443B46A8BF5B46B342A8BF3346AB
:102B1000002BC2BFABEB030BF61AFF1A119B002B65
:102B200016DD05991A46504621F072FE05900028E0
:102B30009ED00146189A504621F0C0FD0D90002805
:102B40003FF4BFAE1899504621F0F0FC0D9B18934E
:102B5000BBF1000F71DC0F9B002B08DD149A069966
:102B6000504621F055FE069000283FF4A8AE002EF6
:102B700008DD06993246504621F0A4FE0690002852
:102B80003FF49DAE002F08DD05993A46504621F0EE
:102B900099FE059000283FF494AE069A1899504685
:102BA00021F0FCFE079000283FF48BAEC3680D9324
:102BB00000230599C36038F093FF00284ADA0D9B83
:102BC00053EA080340F0BB80C9F31303002B40F025
:102BD000B68029F000431B0D1B05B3F1D66F40F200
:102BE000AE80079B5B6923B9079B1B69012B40F3F0
:102BF000A68007990122504621F064FE05990790AE
:102C000038F06EFF002840F39A8029F00043049AC0
:102C10001B0D1B05002A78D0B3F1D66F6CD8B3F129
:102C20005C7F45D84FF000084FF000092223CAF816
:102C300000304DE6002401255EE718995A465046BB
:102C400021F040FE1890002885D13AE6E8C903003B
:102C500002FCFFFFCB4640F0A3800D9AC9F313039B
:102C6000002A40D0964A934258D1049B42467BB9F1
:102C7000B8F1FF3F40F08980924B99453FF421AE77
:102C8000914BDDF8108009EA030303F580191FE674
:102C90008D4B09EA0303B3F1D46F16D918F1010182
:102CA0001BD1884A91453FF40CAE03F5801980464C
:102CB000864B404649460022FDF72EFC0B46034357
:102CC000804689467FF404AEB0E71E0DC6F16B0660
:102CD0004FF0FF31B1408845E7D0002C5ED014EAB8
:102CE0000B0FE5D01EE0002B4AD1B8F1000F8CD0BD
:102CF00064B314EA0B0F2BE0A3F580136FEA1359AA
:102D00006FEA09594FF0FF38D2E7A3F580136FEA55
:102D100013596FEA09594FF0FF38D9E59CB114EA0D
:102D2000090F0CD0049A4046494638F0A2FC0246EE
:102D30000B46DDE90A01FDF739FA80468946049B16
:102D4000002BB5D1C4E515EA080FEAE718EA050F2C
:102D5000F5D0049A4046494638F08BFC02460B46B3
:102D6000DDE90A01FDF720FA0022002304460D46A2
:102D7000FDF73AFE00287FF455AFA046A946DEE7EE
:102D8000002CB6D115EA080FE2E724B114EA090FC6
:102D90003FF49EADC6E718EA050FF9E72A42A0E71F
:102DA0000599079838F0B7FE00224FF0804304469B
:102DB0000D46FDF72DFE00286DD00D9B002B78D120
:102DC000B8F1000F56D1C9F31303002B59D1404B72
:102DD000002220462946FDF711FE002858D1204642
:102DE00029463C4B0022FDF797FB04460D4605F1B2
:102DF000004308940993344B334A0BEA03031593B9
:102E0000354B0BEA02029A42DDE9086740F09E80EA
:102E1000ABF154794046494621F052FEDDE90823E2
:102E2000FDF77AFB42464B46FDF7C0F90B462649B3
:102E30002A4A19409142804654D90B9A214B9A4212
:102E400003D10A9B01333FF43CADDFF878904FF09B
:102E5000FF381899504621F069FB0699504621F039
:102E600065FB0599504621F061FB0799504621F01A
:102E70005DFBD5E5B8F1010F03D1B9F1000F3FF4C7
:102E8000D1AE174C124D0023CDE908340024B2E72F
:102E9000104D0024ABE70F4B204629460022FDF7DA
:102EA0003BFB0D9B04460D46002BA0D0CDE9084509
:102EB000A1E7074C0023CDE9083425461C469AE7D4
:102EC000FFFF0F00FFFFEF7F0000F07F0000503991
:102ED0000000F03F0000E03F0000E07FFFFF9F7C2C
:102EE0000000F0BF03F15479049B4E46002BB0D193
:102EF00029F00043159A1B0D1B059A42A9D12046C3
:102F00002946FDF79CFEFDF7D9FA0B4602462946F5
:102F10002046FDF749F9C9F313060D9B46EA08065A
:102F20001E4304460D464AD02DA3D3E90023FDF7E6
:102F300065FD00287FF4CCAC2BA3D3E90023204609
:102F40002946FDF779FD002883D0C1E4049B13B323
:102F5000159BB3F1D46F1ED825A3D3E900232046D7
:102F60002946FDF755FD90B129462046FDF796FD0F
:102F7000012838BF0120FDF755FA0D9B04460D4688
:102F8000D3B901F1004312901393DDE91267159A4A
:102F900007F1D6639F1ADDE90A0121F091FD02468F
:102FA0000B4630463946FDF7B7FADDE90A23FDF74F
:102FB000FDF88046894697E7CDE91245E5E70EA37F
:102FC000D3E90023FDF71AFDBDE7652A3FF449ABBD
:102FD000452A3FF446AB0123FFF77EBBAFF30080E9
:102FE0009535A094FFFFDF3F35E5AF350000E03FAA
:102FF0000000C0FFFFFFDF419535A094FFFFCF3FEA
:103000002DE9F04F476A97B014461D46CDE90445B7
:10301000239E83467FB9102020F00AF80246CBF8A1
:10302000240020B9A24BEA21A24822F0EFF9C0E91E
:1030300001770760C760DBF82430196859B15A6816
:103040004A60012393408B60584621F06FFADBF809
:10305000243000221A602B1EB9BF23F000430593D1
:1030600000233360059F944BBCBF01223260BB43F9
:1030700019D1229A42F20F731360C7F3130323434B
:1030800000F0E285249B53B98C4B21E08C4B0893D4
:103090000833249A1360089817B0BDE8F08F874B67
:1030A00008930333F5E7DDE90423CDE90C23DDE9DB
:1030B0000C0100220023FDF797FC804650B1229AB4
:1030C00001231360249B13B1249A7E4B13607E4B23
:1030D0000893E0E714AB019315AB00935846DDE984
:1030E0000C2321F057FDC7F30A560390002E7AD027
:1030F0000D9BCDF84C80C3F31303DDE90C0143F0C5
:103100007F5343F44013A6F2FF36194600226F4B5B
:10311000FDF74AF860A3D3E90023FDF7FDF960A3AA
:10312000D3E90023FDF742F8044630460D46FDF78B
:1031300089F95DA3D3E90023FDF7EEF902460B46BA
:1031400020462946FDF732F804460D46FDF77EFC81
:1031500000220746002320462946FDF74FFC40B1D8
:103160003846FDF76FF922462B46FDF73DFC00B9C6
:10317000013F162F54D8564B03EBC703D3E9002366
:10318000DDE90C01FDF73AFC00284BD0013F00239C
:103190001293149B9B1B5A1E45BFC3F10103069358
:1031A000002300230A9254BF06930A93002F3BDBAF
:1031B0000A9B0F973B440A9300230B93209B092BF8
:1031C00000F28A80052BC4BF043B2093209BA3F10F
:1031D0000203CCBF00240124032B00F28880DFE827
:1031E00003F02B383657DDE914631E4406F23243F0
:1031F000202BC1BFC3F140039F4006F2124324FAC3
:1032000003F3D6BFC3F1200347EA030004FA03F037
:10321000FDF708F90122A1F1F873013E139274E75A
:103220000123B5E71290B4E7069BDB1B06937B42B4
:103230000B9300230F93C1E700230E93219B002BD8
:1032400058DC0123099399461A4621920CE0012388
:10325000F3E700230E93219BFB1803F10109099367
:103260004B46012BB8BF0123DBF8240000210422C8
:1032700002F114059D4241D94160584621F016F9EA
:10328000089000283DD1134B02464FF4D571CBE690
:103290000123DFE7AFF3008061436F63A787D23F6D
:1032A000B3C8608B288AC63FFB799F501344D33F35
:1032B0008C4C0400A34C04000000F07F884C0400F8
:1032C0007F4C04004B4E04004A4E04000000F83FBF
:1032D00038CA0300174D04000124002320930E94E4
:1032E0004FF0FF330993994600221223ADE70123E3
:1032F0000E93F5E7219B09939946B5E701315200FA
:10330000B6E7DBF82430089A1A60B9F10E0F6FD8CF
:10331000002C6DD0002F36DDA14B07F00F0203EB20
:10332000C203D3E90034F805CDE910344FEA27147D
:1033300017D59C4BDDE90C01D3E90823FDF716FAFC
:10334000CDE9040104F00F044FF00308954D5CB97A
:10335000DDE91023DDE90401FDF708FACDE90401F8
:103360002BE04FF00208F1E7E10709D5DDE9100194
:10337000D5E90023FDF7D0F8CDE9100108F10108E7
:1033800064100835E3E700F007817C42844B854DEB
:1033900004F00F0203EBC203D3E90023DDE90C01C3
:1033A000FDF7BAF8CDE90401241100234FF002081B
:1033B000002C40F0E580002BD0D1129BDDE90445C4
:1033C000002B00F04C81784B002220462946FDF767
:1033D00015FB002800F04381B9F1000F00F03F8198
:1033E000099B002B00F3E480DDE90C34CDE90434C3
:1033F000159B002B02DB0E2F40F342820E9A002A0F
:1034000040F067820B9CDDF818800025B8F1000FB2
:103410000DD00A9B002B0ADD4345069AA8BF434600
:10342000D21A06920A9AA8EB0308D31A0A930B9BA6
:103430000BB30E9B002B00F0A682002C00F0A182A3
:1034400029462246584621F0E3F9039A01460546EB
:10345000584621F033F903990646584621F066F89C
:103460000B9B1B1B0B9300F091820B9A3146584625
:1034700021F0CEF903900121584621F009F90F9B64
:103480000446002B00F084821A460146584621F07B
:10349000BFF9209B012B044603DC049B002B00F0AA
:1034A0007C820026236904EB8303186938F0C9FA8B
:1034B0000F96C0F120000A9B184410F01F0000F086
:1034C0009182C0F12003042B40F38182069BC0F15E
:1034D0001C00034406930A9B034480440A93069B02
:1034E000002B05DD03991A46584621F0EBF90390AD
:1034F0000A9B002B05DD21461A46584621F0E2F9C9
:103500000446129B002B00F076820398214638F087
:10351000E7FA002880F26F82002303990A225846B6
:1035200021F026F80E9B03907E1E002B00F05C829B
:10353000002329460A22584621F01AF8099B002B3D
:10354000054603DC209B022B00F35E82B8F1000FDE
:1035500005DD29464246584621F0B4F905460F9B41
:10356000002B00F0D0826968584620F09FFF074684
:10357000002840F07F820D4B024640F2EA2153E5DD
:10358000E20706D5D5E90023FCF7C6FF08F10108DC
:103590000123641008350BE74FF002080DE700BF68
:1035A00038CA030010CA03000000F03F174D0400A2
:1035B0002046AD4B00222946FCF7AEFFCDE90401C1
:1035C000099C7E1E08F101084046FCF73BFFDDE93F
:1035D0000423FCF7A1FFA54B0022FCF7E7FDA1F1B6
:1035E0005073CDE910011193002C3BD1DDE90401AA
:1035F0009F4B0022FCF7D8FD02460B46CDE9042381
:10360000DDE91023FDF718FA002840F05781DDE9C5
:10361000102101F10043DDE90401FDF7EFF9002875
:103620003FF4E2AE00242546219BDDF820A0DE43D6
:103630004FF000082146584620F078FF002D00F09A
:10364000A980B8F1000F05D0A84503D041465846DF
:1036500020F06CFF2946584620F068FF9AE03E466D
:103660004C46B1E7834B03EBC40353E90201089BCB
:103670001C440E9B002B4AD002460B4600207E497C
:10368000FDF774F8DDE91023FCF78EFDCDE910019C
:10369000DDF820A0DDE90401FDF7D8F90546FCF7C7
:1036A000D1FE02460B46DDE90401FCF77DFD303515
:1036B000CDE9040102460B460AF8015BDDE9100181
:1036C000FDF7BAF9002865D1DDE904236B49002034
:1036D000FCF76AFD02460B46DDE91001FDF7ACF987
:1036E000002840F00D81A24500F0EA80DDE91001DC
:1036F0005D4B0022FCF710FF5B4BCDE9100100226F
:10370000DDE90401FCF708FFCDE90401C2E7DDE9CA
:103710001023FCF701FFCDE91001DDF820A0A04641
:10372000DDE90401FDF792F90546FCF78BFE024640
:103730000B46DDE90401FCF737FD30350AF8015B83
:1037400002460B46A245CDE904234FF0000223D1E7
:10375000494BDDE91001FCF729FD02460B46DDE986
:103760000401FDF769F9002840F0CA80DDE9102363
:1037700041490020FCF718FD02460B46DDE9040133
:10378000FDF73CF970B1C24608F1FF381AF8013C68
:10379000302BF8D0374655E0334BFCF7BDFECDE972
:1037A0000401BDE7DDE90C34CDE90434159B002BA1
:1037B000FFF628AE0E2F3FF725AE2E4B03EBC703C7
:1037C000D3E90034CDE90634219B002B02DAB9F1AC
:1037D000000F64D0DDE90445DDF820A0DDE9062313
:1037E00020462946FCF7C2FFFDF730F90646FCF7F4
:1037F00029FEDDE90623FCF78FFE02460B46204634
:10380000294606F13004FCF7CFFC0AF8014B089C6E
:10381000AAEB0404A14502460B4640F08280FCF767
:10382000C5FCDDE9062304460D46FDF705F9002831
:1038300065D1DDE9062320462946FDF7D5F808B114
:10384000F3075CD40399584620F070FE00238AF8F1
:103850000030229B01371F60249B002B3FF41BACE0
:10386000C3F800A017E400BF0000244000001C4083
:103870000000144038CA03000000E03F0000F03FA1
:10388000A24B03EBC703D3E90034CDE90634219BF7
:10389000002B9FDAB9F1000F9CDC7FF4C3AE9C4B88
:1038A0000022DDE90601FCF737FEDDE90423FDF720
:1038B000B9F8044600287FF4B5AE3E462546B4E08C
:1038C000DDE90C34CDE90434159B002B01DB0E2F10
:1038D000D6DD209A012A36DC139A82B303F23343F1
:1038E0000B9CDDF81880069A1A4406920A9A012168
:1038F0001A4458460A9220F0CBFE054686E53E461D
:1039000053469A4613F8012D392A06D1089A9A424D
:10391000F7D10899302201360A701A7801321A70EC
:1039200038E77C4B0022FCF7F7FD00220023044619
:103930000D46FDF759F800283FF450AF82E7149B7D
:10394000C3F13603CCE70B9B09F1FF34A34208DB3C
:10395000B9F1000FA3EB04040EDBDDF818804B4631
:10396000C1E70B9B0F9A0B94E31A1A44DDF81880F9
:103970000F924B460024B6E7069BA3EB09080023F1
:10398000B1E7039E71E50B9A039970E5039672E522
:10399000209B012B17DC049BABB9059BC3F31303DE
:1039A0009BB9059B23F00046360D360536B1069BC4
:1039B000013306930A9B01330A9301260F9B002BC8
:1039C0007FF470AD0F96012075E50026F6E73FF411
:1039D00086AD069A1C331A4406920A9A1A449844F1
:1039E0000A927CE50346F4E7099B002B2BDC209B25
:1039F000022B09DC27E0B9F1000F1DDC209B022B14
:103A00001ADDCDF824903E46099B002B7FF40CAEC6
:103A100021460522584620F0ABFD01460446039896
:103A200038F05EF800287FF7FFADDDF820A03123E5
:103A30000AF8013B0136FBE50E9BCDF824903E468B
:103A4000002B7FF483AD089F0398214637F038FEA2
:103A500000F1300907F8019B089B099AFB1A9A426A
:103A600040F3CB80039900230A22584620F080FDC2
:103A70000390E9E72A690232920005F10C010C304B
:103A800037F0D2FB01223946584620F01BFF089B35
:103A900003F1010ADDE9082313440A93049B03F0B0
:103AA0000103A8460B9305460AF1FF33214603980C
:103AB000069337F005FE4146099000F1300903985E
:103AC00038F00EF82A4621460746584620F066FF91
:103AD000C268014602B3584620F028FD002F3ADAAA
:103AE00003990122584620F0EDFE2146039037F05D
:103AF000F7FF002803DC29D119F0010F26D0B9F116
:103B0000390F1DD132E02846C1E700BF38CA030093
:103B100000001440000024400E90039837F0E0FFAE
:103B20000E990C90584620F001FD0C9A5ABB209B30
:103B300053B90B9B43B9B9F1390F17D0002F05DDED
:103B4000099B03F1310901E0002F2ADADDF818A002
:103B50000AF8019B6EE5209B3B4304D1049B03F0D4
:103B60000103002BBCD0B9F1390F36D1069F3923A0
:103B700007F8013BBA46013F1AF8013C392B5BD0EC
:103B800001333B7056E5002F06DB209B3B4306D1FB
:103B9000049B03F0010313B9002AA1DCD6E7002A35
:103BA000E1DC0A9B0AF8019C534557462FD0039944
:103BB00000230A22584620F0DBFCA84503904FF072
:103BC00000034FF00A02414658460BD120F0D0FCCA
:103BD000804605460AF1010A66E7DDF818A009F1FA
:103BE0000109B5E720F0C4FC2946804600230A22DB
:103BF000584620F0BDFC0546ECE7099B002BC8BFEA
:103C00001F46089BD8BF01271F444FF000080399A7
:103C10000122584620F056FE2146039037F060FFFF
:103C20000028A7DC02D119F0010FA3D1BA4617F87A
:103C3000013D302BFAD0FDE4089BBB429AD1089A93
:103C4000312301361370F5E4249B002B7FF41EAA68
:103C5000014BFFF73DBA00BF7F4C040008B502F1ED
:103C60000801024831F038FE08BD00BF00CB030058
:103C700008B5B0F5A27F0ED0B0F5A47F0DD0B0F599
:103C8000A67F0CD0002303EB830201EB820292F8A3
:103C9000282032B908BD0123F5E70223F3E7032307
:103CA000F1E7183103EB830301EB8301014831F0A5
:103CB00013FEEFE714CB030010B50446054B40F8A4
:103CC0001C3B24F004FE044B2360204631F053FFDC
:103CD000204610BD2C2F0400B4DF030010B588B0BF
:103CE000032803D0052818D008B010BD164B1B7848
:103CF000002BF9D10093019302930393134B039389
:103D0000134B02936946134831F0EAFD684624F0EC
:103D1000DEFD0D4B01221A70E6E70B4B1B78002BE2
:103D2000E2D0002404940594069407940A4B079368
:103D30000A4B069304A90A4831F0D2FD04A824F0E6
:103D4000C6FD014B1C70CFE7BA7500205D4800002E
:103D5000CD87020030CB03006D480000ED870200E4
:103D600040CB030010B40A4A02600A4C216841604B
:103D70000022826002754275013121600146064CC5
:103D800041F81C4BC2614A608A60826210BC704775
:103D9000B4DF0300380000202C2F040048B91B4872
:103DA000006878B308B5032A2ED8DFE802F00713BD
:103DB0001B22012824D116480068F2E73BB14FF4DA
:103DC000202224F06FFBB0FA80F0400908BD4FF4C8
:103DD000C022F6E74FF4803224F064FBB0FA80F0A2
:103DE0004009F3E70B4A24F05DFBB0FA80F040098C
:103DF000ECE7094A24F056FBB0FA80F04009E5E709
:103E000000207047002070470020DFE734000020CA
:103E100030000020100001002000010038B50446E9
:103E20000020A4460CF8040B6060CCF80400CCF829
:103E3000080020614FF050756561606284F82800C9
:103E400084F82900E0624868022801D0204638BD85
:103E50000968087884F82800097984F8291001286D
:103E6000F4D838B9074D2D68E562002DEED0FFF784
:103E700095FFEBE7012802D1034D2D68F4E70025FB
:103E8000F2E700BF340000203000002010B50446E7
:103E90002B4924F08AFD00283BD02A49204624F0F3
:103EA00084FD002837D02849204624F07EFDA0B3A9
:103EB0002649204624F079FD88B32549204624F080
:103EC00074FD70B32349204624F06FFD58B3224996
:103ED000204624F06AFD40B32049204624F065FDC9
:103EE00028B31F49204624F060FD10B31D49204629
:103EF00024F05BFDF8B11C49204624F056FDE0B1EA
:103F00001A49204624F051FD08B1002002E00C209F
:103F100000E0012010BD0220FCE70320FAE70420A6
:103F2000F8E70520F6E70620F4E70720F2E7082087
:103F3000F0E70920EEE70A20ECE70B20EAE700BFF4
:103F400054CB030058CB03005CCB030060CB0300D1
:103F500064CB030068CB03006CCB030070CB030081
:103F600074CB030078CB03007CCB030080CB030031
:103F700010B586B0044624F0C7FD002302930393D6
:103F8000049305930294094B0593094B049302A9EA
:103F900002201BF0E9F8ADF8040002A824F097FC19
:103FA0009DF80530237006B010BD00BFF5EB020090
:103FB0003DA7020000B583B007238DF8043000212F
:103FC00001A814F0A7FB14F0C5FB074BD3F80805B4
:103FD00030F030FC054B83FB0023C017C0EB6310AF
:103FE00000B203B05DF804FB00C000401F85EB5138
:103FF00010B582B00D4B18600024011844EB040387
:10400000091843F100035A0142EAD1624FEA411C08
:1040100011EB0C0143EB02030A18009443F1000377
:104020000348FDF789FF02B010BD00BF1400002057
:10403000F008002030B583B0044624F08DFED4F89B
:1040400094300022C02120461CF0C2FD94F89C2030
:104050000025009540F24A211A4B01FB02322B4603
:104060002046FDF769FF03222946204635F0D7FB9D
:1040700001222946204635F020FC0122294620460F
:1040800035F0B2FB01220221204635F061FC02220C
:104090000121204635F03BFC01221146204635F037
:1040A00021FC03220121204635F0B9FB01221146F3
:1040B000204635F002FC01221146204635F094FBE3
:1040C00003B030BDA050065410B50446054831F089
:1040D0003BFE206890F8A23003B910BDA43030F048
:1040E000CFFBFAE784CB030010B50446054831F056
:1040F0002BFE206890F8A23003B910BDA43030F038
:10410000C3FBFAE790CB030010B50446054831F035
:104110001BFE206890F8A23003B910BDA43030F027
:10412000BBFBFAE79CCB0300026800239371026893
:1041300053810268938101680122C1F80E20016851
:10414000C1F812200168074AC1F816200168C1F8B9
:104150001A200268C2F81E300368FB22C3F822202E
:10416000704700BFA086010090F8253103B9704761
:1041700010B50446054831F0E7FD94F82511207884
:104180001AF0E6FE002384F8253110BDA8CB030009
:1041900010B586B00446FFF7E7FF104831F0D4FDB4
:1041A0000023029303930493059302940C4B05930D
:1041B0000C4B049302A920781AF0D6FFADF8040046
:1041C00002A824F084FB9DF804302BB19DF8053043
:1041D00084F8253106B010BD0023F9E7CCCB0300ED
:1041E0002DF60200ABB102002DE9F04F83B004467A
:1041F0000B6A062B17D000252F46AA468B68052B85
:1042000035D80020804683460646A4F800A0A77053
:10421000E570267184F805B084F806802081204678
:1042200003B0BDE8F08FCA691379303B92F805A05E
:1042300003EB83030AEB430A1FFA8AFA0AF5F46ACE
:104240001FFA8AFA9378303BD77803EB830307EBA6
:104250004307BFB2303FFFB21378303B557803EBD2
:10426000830305EB4305ADB2303DEDB2C6E74868C8
:1042700036F0BFFF804621F000494946FCF7E6FBD7
:10428000254B83FB0023C617C6EB2336F6B242F25A
:10429000107006FB00F0FCF7D5F802460B464046CE
:1042A0004946FBF781FF80468946FCF7CFFB1B4B55
:1042B00083FB00234FEAE07BCBEB631B5FFA8BFBB6
:1042C000642000FB0BF0FCF7BDF802460B464046AD
:1042D0004946FBF769FF02460B46CDE90023FCF790
:1042E000B5FB5FFA80F8B8F13A0F01D94FF03B08FF
:1042F0004046FCF7A7F802460B46DDE90001FBF754
:1043000053FF0022064BFCF707F91EF03BFEFCF7BB
:10431000C5FB80B279E700BFAD8BDB681F85EB5131
:1043200000408F40437D03B9704710B504460548EF
:1043300031F00AFD617D20781AF00AFE00236375D2
:1043400010BD00BFF0CB0300037D03B9704710B56B
:104350000446054831F0F8FC217D01201AF0D0FD1B
:104360000023237510BD00BF14CC030010B586B028
:104370000446FFF7E9FF104831F0E6FC0023029302
:1043800003930493059302940C4B05930C4B0493F5
:1043900002A920781AF020FEADF8040002A824F04B
:1043A00096FA9DF8043023B19DF80530237506B0C8
:1043B00010BD0023FAE700BF30CC030047F5020030
:1043C00025B2020010B50446FFF7ACFF034831F0F8
:1043D000BBFC2046FFF7CAFF10BD00BF4CCC03005A
:1043E00010B504460B460849186824F0DEFA30B9C7
:1043F0002068FFF797FF054831F0A6FC10BD206844
:10440000FFF790FFFAE700BF940A04004CCC0300CA
:1044100010B504460B460649186824F0C6FA18B9C8
:104420002068FFF7A3FF10BD2068FFF78DFFFAE7B4
:10443000940A040008B531F067FC034831F084FCAD
:1044400031F067FC08BD00BF70CC030008B531F047
:104450005BFC034831F078FC31F05BFC08BD00BF29
:1044600080CC030038B5044624F040FA00252563CB
:104470006563A563E563174BE363174BA36325648B
:104480006564A564E564154BE364154BA36404F10E
:10449000500024F02BFAC4F88050C4F88450C4F8BB
:1044A0008850C4F88C500F4BC4F88C300E4BC4F8B5
:1044B0008830C4F89050C4F89450C4F89850C4F8A8
:1044C0009C500A4BC4F89C30094BC4F898302046E5
:1044D00038BD00BF57860200598602007986020067
:1044E0007B8602009B8602009D860200BD8602003C
:1044F000BF86020010B5006800F5B47024F043FADE
:10450000074C2168074831F0A8FB23684B2B03D0E8
:104510004B22034B1A6010BD41F23D32F9E700BF58
:1045200000000020F016002010B50446054831F0C8
:104530000BFC012104F59C7024F013FA052031F0E6
:104540005CFD10BD94CC030010B50446044831F066
:10455000FBFB002104F59C7024F003FA10BD00BFA2
:10456000A4CC030010B50446084831F0EDFB01204F
:1045700019F05EFF002104F1180024F0F2F9002187
:1045800004F1A80024F0EDF910BD00BFB8CC030081
:1045900010B5044660211CF0C5FA0023C4F894301D
:1045A000C4F89830102284F89C20C4F8A030C4F8D5
:1045B000A430C4F8A830C4F8AC30044BC4F8AC3014
:1045C000034BC4F8A830204610BD00BFCF850200C1
:1045D000D185020010B50446094831F0B5FB04F559
:1045E000C86031F0C8FA2046FFF7BCFF0022114630
:1045F000044835F0F9F82046FFF7A6FF10BD00BFCC
:10460000CCCC0300F008002010B504460B46084946
:10461000186824F0CAF928B920680121783024F0FC
:10462000A0F910BD20680021783024F09AF9F8E74D
:10463000940A040010B504460B460649186824F095
:10464000B4F918B92068FFF76FFF10BD2068FFF7B5
:104650007BFFFAE7940A040010B50446012300F832
:10466000043B24F0EEFC0023C4F8D030C4F8D4306E
:10467000C4F8D830C4F8DC30264AC4F8DC20264A16
:10468000C4F8D820C4F8E030C4F8E430C4F8E83006
:10469000C4F8EC30214AC4F8EC20214AC4F8E820E0
:1046A000C4F8F030C4F8F430C4F8F830C4F8FC3082
:1046B0001C4AC4F8FC201C4AC4F8F820C4F8003195
:1046C000C4F80431C4F80831C4F80C31174AC4F8EE
:1046D0000C21174AC4F80821C4F81031C4F8143169
:1046E000C4F81831C4F81C31124AC4F81C21124A0B
:1046F000C4F8182184F8203184F8213184F822315B
:1047000084F8233184F8243184F82531C4F8283121
:10471000204610BDDF860200E1860200018702000C
:1047200003870200238702002587020045870200D5
:10473000478702006787020069870200034603215A
:104740000BE000221A605A609A60DA601A61044A2B
:10475000DA60044A9A60013914330029F1DA7047AB
:10476000F1850200F3850200002202708270C2709F
:1047700002710121417182718260C26002614261F5
:1047800002494161024901610276704735860200A3
:104790003786020010B5013919E0154BA3FB023C26
:1047A0004FEA5C13642404FB13234FEA430E4FEAE1
:1047B0005C120EF1010C0F4C14F80CC000F801C093
:1047C00001F1FF3C14F8133000F80C300239632A71
:1047D000E3D8092A08D9530001330649CB5C43705A
:1047E00011F81230037010BD30320270FBE700BFC9
:1047F0001F85EB518CE0030010B5013919E0154B12
:10480000A3FB023C4FEA5C13642404FB13234FEA2E
:10481000430E4FEA5C120EF1010C0F4C14F80CC061
:1048200000F801C001F1FF3C14F8133000F80C301F
:104830000239632AE3D8092A08D95300013306490B
:10484000CB5C437011F81230037010BD303202702F
:10485000FBE700BF1F85EB51C0DF030008B502482E
:1048600024F0B4FD08BD00BF8017002008B5024841
:1048700024F0ACFD08BD00BF7017002070B5141EF9
:1048800004DD0C4E002C03DD002506E00A4EF9E79E
:104890006442F9E764100135EDB24CB114F0010F38
:1048A000F8D006EBC503D3E90023FBF735FEF1E7AB
:1048B00070BD00BFA0C9030058C9030000B583B094
:1048C00002230DF107024100034824F0B9FE9DF8D0
:1048D000070003B05DF804FB5018002070B582B0EB
:1048E0000C4645000A4E02230DF1070229463046C8
:1048F00024F0A6FE9DF80730E218D2B28DF807200A
:1049000002232946304624F0C7FE02B070BD00BF26
:10491000501800202DE9F04182B0074600240EE037
:104920000DF1070221463F4824F029F902239DF8A2
:10493000072061003C4824F0AFFE0134E4B2A12C12
:10494000EED900263446354620E0C1F101015A1E59
:104950001340002BF9D1490001F0FE01FFF7BEFF23
:104960000234E4B2404624F0CDF9304B2B40002114
:1049700003E0C1F101015A1E1340002BF9D1490097
:1049800001F0FE01FFF7AAFF0136F6B2312E16D86C
:104990006D000DF107023146384624F0F0F89DF81D
:1049A00007300BB145F0010504F101085FFA88F802
:1049B000204624F0A7F91E4B2B400021C9E7002612
:1049C00020E0C1F101015A1E1340002BF9D149002A
:1049D00001F0FE01FFF782FF0234E4B2384624F012
:1049E00091F9124B2B40002103E0C1F101015A1E45
:1049F0001340002BF9D1490001F0FE01FFF76EFFD3
:104A00000136F6B21E2E09D86D00671CFFB2204693
:104A100024F078F9074B2B400021D6E702B0BDE81F
:104A2000F08100BF8418002050180020473C61E44A
:104A30005153D0F25053D0F22DE9F04383B00746E2
:104A400008460A7B073124F042FED7F8983003F27B
:104A5000AB29002426464FF0010814E017F0FCF8BB
:104A6000301A484431F0C9FA17F0F6F80646002328
:104A700000932A463846FDF75FFA07F1A00024F0BC
:104A8000A5FC0134E4B2A12C12D897F89C3040F276
:104A90004A22094D02FB03552046FFF70FFF9223E0
:104AA00003FB0055B8F1000FD8D04FF00008DBE74A
:104AB00003B0BDE8F08300BFA050065410B5B0B0FD
:104AC0008E4614462B4B0DF1B00C0FCBACE8070013
:104AD0008CF800300622DEF800102CA836F094FD89
:104AE000042221680DF1B70036F08EFD11238DF8F8
:104AF000BC30214831F028F9322031F07EFA684686
:104B0000FFF746FD1D4831F01FF9322031F075FAEC
:104B10000EF04EFD1A4BA3FB0023DB0803EB4313FF
:104B2000C31A8DF89C30174831F00EF9322031F05D
:104B300064FA6846FFF77EFA134831F005F932202F
:104B400031F05BFA2CA96846FFF776FF0F4831F089
:104B5000FBF8322031F051FA684624F0FDF80C4899
:104B600031F0F2F8322031F048FA28A823F0AFFEF5
:104B700030B010BDC0C80300F0CC0300FCCC030073
:104B8000E1830F3E08CD030014CD030020CD0300C8
:104B900028CD030010B5044624F0AEFE237803B9F7
:104BA00010BD002323706178014824F0F1FDF7E780
:104BB0004C18002010B582B00446FFF7EBFF084800
:104BC00024F0B1FDADF804009DF8043023B19DF848
:104BD0000530637001232370207802B010BD00BF40
:104BE0004C18002003460022026042608260C260CE
:104BF00003C983E80300034ADA60034A9A6018464F
:104C0000704700BFFDC102003DB70200034600220D
:104C1000026042608260C26003C983E80300034A05
:104C2000DA60034A9A601846704700BF05C2020066
:104C300073B7020003460022026042608260C260D5
:104C400003C983E80300034ADA60034A9A601846FE
:104C5000704700BF0DC20200A9B7020008B5436843
:104C6000994201D8084608BD94460A466146014863
:104C700036F0AFFA2CCD030030B585B084460191F3
:104C800044680368E31ADB10114803FB00F0114D80
:104C90002D1A8D4213D30390814213D803AA1268B0
:104CA0001044DCF80030E41AE410094B03FB04F470
:104CB000A04209D3074B984208D805B030BD104632
:104CC00036F081FA01AAEAE70248F6E70148F4E77C
:104CD000ABAAAAAA5555550530B583B004460D4672
:104CE0000022062108202EF081F900220621092049
:104CF0002EF07CF9002206210A202EF077F90022FE
:104D000006211A202EF072F9002206211B202EF017
:104D10006DF9237823B3A37813BB6378012B08D0F4
:104D2000022B20D0032B20D0042B20D00023134AA9
:104D300000E0134A6260237204236372002323732A
:104D400065730323A37324610E4A04F10C01201D33
:104D500013F032FD01900C4B98420AD10123A3704D
:104D6000A07803B030BD094AE4E7094AE2E7094AFE
:104D7000E0E701A9084825F006F8F1E700800040C7
:104D800000900040713C00000000AD0B00A000400E
:104D900000A0014000B0014064CD030010B582B016
:104DA000044624F090F8601C13F024FA0190064B9E
:104DB000984204D101232370207802B010BD01A9CC
:104DC000024824F0F0FFF7E70000AD0B7CCD0300B4
:104DD00030B583B004780CB1837833B10D4830F02E
:104DE000B3FF0025284603B030BD13F0F1F90546A6
:104DF0000028F7D1072013F0BFF90190064B984225
:104E000001D12546EEE701A9044824F0DCFF2C4639
:104E1000F7E700BFC4CD03000000AD0BA0CD030039
:104E2000F0B583B004460F4616461D4624F033F80D
:104E300023780BB1A37813B1A07803B0F0BD20465E
:104E4000FFF7C6FF0028F7D0E770267165769DF85A
:104E500020302377631C23620C4B6362A46204F14D
:104E6000240304F11C0204F1190106EB471013F0AE
:104E700067F80190064B984203D10123A370637138
:104E8000DAE701A9034824F0AEFFD5E75D3C000056
:104E90000000AD0BF8CD030010B582B0047814B952
:104EA000204602B010BD407813F00EFC0190054B77
:104EB00098420CBF01240024F2D001A9024824F03A
:104EC000ACFFEDE70000AD0B20CE030010B582B0C3
:104ED000044624F0A8FF601C13F068FB0190064B09
:104EE000984204D101232370207802B010BD01A99B
:104EF000024824F048FFF7E70000AD0B40CE030066
:104F000070B504460E4615460B4AFFF7A7FEB5F1ED
:104F1000FF3F0AD06DB16268921B954200D22A46CB
:104F20003146204625F03FF803E066602368002202
:104F30009A55204670BD00BF58CE030010B582B010
:104F4000044616F0CDFA184830F0FEFE04F11801C0
:104F5000164825F0CFF804F11C01154825F0CAF8D1
:104F600004F12001134825F0C5F816F0B9FA1248EB
:104F700030F0EAFE237D003B18BF01238DF8063098
:104F80000DF106010D4825F0C5F8637D003B18BF03
:104F900001238DF807300DF10701094825F0BAF813
:104FA00016F09EFA02B010BD6CCE030074CE030062
:104FB0008CCE0300A4CE0300BCCE0300C8CE0300F9
:104FC000DCCE030010B584B08446019144680368C8
:104FD000E31A5B10114800FB03F31148C01A884222
:104FE00013D30393994213D803AA10681844DCF82A
:104FF0000030E41A6410094B03FB04F4A04209D307
:10500000074B984208D804B010BD104636F0DBF8C4
:1050100001AAEAE70248F6E70148F4E7ABAAAAAA20
:105020005555551510B582B00446006800F50A7054
:10503000FEF7C0FFADF8040001A90D4825F045F9C1
:10504000206800F50A70FEF7B5FF00EBC000094BC1
:1050500083FB0023C017C0EB63002030ADF80600CF
:105060000DF10601044825F030F902B010BD00BF73
:10507000F0CE030067666666F8CE030030B585B0F3
:1050800004461A4B1B68BFF35B8F13F0010F1BD054
:10509000002500950195029503950094144B039308
:1050A000144B0293144C6946204625F050F9134BDB
:1050B00044F8143C1C3C684623F009FC2946204671
:1050C00030F0CBFD05B030BD084835F0ABFE002810
:1050D000DED00B4D2846FEF745FE0A4A0A4928460F
:1050E0002DF096FF014835F0A9FED1E7EC1600201F
:1050F000D98F0200DBB502000C17002000CF03009F
:10510000F0160020541D0020B93C000070B584B09A
:105110000446154830F018FE2046FFF723FA2046D3
:10512000FFF712FA114B01221A7000250095019524
:105130000295039500940E4B03930E4B029304F5D6
:10514000C866694604F25C6025F001F90A4BC4F8B0
:105150004836684623F0BBFB2A4642F210713046BF
:1051600030F097FD04B070BD18CF0300B975002072
:10517000FBF30200DBB7020040CF030010B584B0A0
:105180000446002300930193029303930B6800935A
:10519000064B0393064B02930146684625F0C9F877
:1051A000684623F094FB204604B010BDAB88020093
:1051B000BFC0020010B584B00446002300930193E1
:1051C000029303930B680093064B0393064B0293E1
:1051D0000146684625F0ADF8684623F078FB204686
:1051E00004B010BDAD880200F1C0020010B584B05B
:1051F0000446002300930193029303930B680093EA
:10520000064B0393064B02930146684625F091F83E
:10521000684623F05CFB204604B010BDE18F02001D
:1052200023C1020010B584B004460023009301930B
:10523000029303930B680093064B0393064B029370
:105240000146684625F075F8684623F040FB204685
:1052500004B010BDEB8F020055C1020010B50B6801
:10526000002B0EDB934206D95400B3EB420F02D25F
:105270000C60002C08DB09680022013125F032F9AE
:1052800010BD034835F09FFF6FF000430B60F2E75D
:1052900068CF030038B500F10803036069B1044624
:1052A0000D460846FBF73CFE4FF000032A1829463E
:1052B000204625F0CFF9204638BD014835F07DFF66
:1052C00080CF0300F0B585B00446314B83FB016508
:1052D000C917C1EB651183FB0235D317C3EB651307
:1052E00001F55B2202F53A6203F5DB1303F5BA53CD
:1052F000284981FB0356DD17C5EBA63505F14106AC
:105300008DF8046081FB0261D617C6EB613101F1B3
:1053100041068DF80560204E06FB15331F4E86FBB7
:105320000357DD17C5EB673505F130078DF80670BB
:105330001B4F07FB112186FB01264FEAE17CCCEBDA
:10534000263C0CF130028DF8072044F6206202FB67
:105350001533144D85FB0326DA17C2EBE6124132F2
:105360008DF8082042F2107303FB1C1385FB032504
:10537000DB17C3EBA51341338DF8093000238DF8FB
:105380000A3003AA01A9FFF785FF204605B0F0BD4A
:105390001F85EB5189B5F814400D0300AD8BDB6818
:1053A000A086010071484A2730B585B004461346EF
:1053B000074D0A68402128461EF07CFA01950290AC
:1053C00003AA29462046FFF765FF204605B030BDF9
:1053D000C418002030B585B004461346074D0A684E
:1053E000402128461EF066FA0195029003AA29463C
:1053F0002046FFF74FFF204605B030BDC4180020FF
:1054000038B50446083020600D68486890420CD3D7
:10541000A918821A9A4200D91A464FF000030A448A
:10542000204625F017F9204638BD034601490248B9
:1054300035F0CFFEB4CF03002CCD030010B50446E9
:105440004868824204D82046FFF7DAFF204610BDA4
:1054500003460249024835F0BCFE00BFD0CF03002E
:105460002CCD0300F8B584460C4603782B2B05D0D1
:105470002D2B07D100F1010C012504E000F1010CF6
:10548000002500E000259CF80020A2F13003DBB2EB
:10549000092B05D92E2A40F021810020014601E088
:1054A000002001469CF80070A7F1300E5FFA8EFED6
:1054B000BEF1090F20D84FF09933834203F1004326
:1054C0008B4119D38A0042EA907283001B1841EB8A
:1054D0000202DB1852411846114676466FEA0E0E5C
:1054E0009E454FF0FF33934106D33618304642F1C4
:1054F00000010CF1010CD5E7002F43D1A5B1002329
:1055000083424FF000438B4101D2002232E04042FF
:1055100061EB4101237A03F08003237243F00A0315
:10552000237220606160DAE0237A03F08003237243
:1055300043F008032372206061600125CFE033440B
:10554000684EA6FB037E2EF0030707EB9E07DB1BCE
:10555000C31A61F100004FF0CC3103FB01F106FBEF
:105560000011A3FB063631445B0843EAC1704908C9
:10557000013212B2B1F5801F0AD300264318DED3E0
:105580000126DCE70022F5E7013212B20CF1010C32
:105590009CF80060A6F13003DBB2092BF4D92E2E63
:1055A0000DD09CF80030652B29D0452B27D0002347
:1055B000D6189CF80030002B7CD000258FE00CF131
:1055C000010C01E00CF1010C9CF80030303BDBB227
:1055D000092BE6D8B0F1993F434E71EB0606F1D2A4
:1055E0008F0047EA90778600301841EB07070018D4
:1055F0007F41C01847F10001013A12B2E2E70CF115
:10560000010E9CF801302D2B17D02B2B1AD04FF008
:10561000000C00239EF80060A6F13007FFB2092FAE
:1056200040D803EB8303303E06EB4303D618B6F5B0
:105630009A7F0CDC0EF1010EECE70CF1020E4FF03C
:10564000010CE6E70CF1020E4FF0000CE1E7BCF1B3
:10565000000F11D06DB100204FF00041237A03F00C
:105660008003237243F00C032372C4E90001012577
:1056700035E000200021F1E77DB100201B4925F035
:1056800007F801F10041237A03F08003237243F00D
:105690000C032372C4E90001E9E70020134924F058
:1056A000F7FFF0E7BCF1000F02D05B42F4467FE762
:1056B000F4467DE7FAF7FAFE3246FFF7DFF815B158
:1056C00001F100431946237A03F08003237243F06B
:1056D0000C032372C4E90001012500E000252846DF
:1056E000F8BD00BFCDCCCCCC999901000000F07F73
:1056F00030B585B08446019144680368E31ADB1035
:10570000114803FB00F0114D2D1A8D4213D3039065
:10571000814213D803AA12681044DCF80030E41A5E
:10572000E410094B03FB04F4A04209D3074B984251
:1057300008D805B030BD104635F045FD01AAEAE7AE
:105740000248F6E70148F4E7CDCCCCCC3333330341
:1057500008B54368C3F1FF4303F5FF0303F5FF43B7
:105760007F339A4202D825F01FFA08BD014835F070
:105770002AFD00BFE8CF030038B504460D460846B1
:10578000FBF7CEFB6368C3F1FF4303F5FF0303F5AB
:10579000FF437F33984205D802462946204625F02C
:1057A00003FA38BD014835F00EFD00BFE8CF030015
:1057B000F8B506461F4600F1080303604FF0000CE1
:1057C000C0F804C080F808C04FF0800E07E0302514
:1057D000134C04F80C504FEA5E0E0CF1010CBCF1B6
:1057E000070F04DC1EEA010FF1D03125F0E70C4B66
:1057F000002119723AB9072F0AD909493046FFF733
:10580000BBFF3046F8BD07493046FFF7B5FFF2E76A
:10581000C7F10807024939443046FFF7ADFFF0E70A
:10582000C418002000D003002DE9F04782B00446E0
:1058300016460A9F4068121A02F10042013A974246
:105840002DD8984607EB0009A9EB0609224652F825
:10585000083B9A4226D0A268914566D803EB010A1C
:10586000411A8D1B98451FD3034498451CD8BFBBD4
:105870000DB1BE423CD1BE421AD208EB07020AEB80
:1058800006039A423CD9434540D8A8EB0A01BE1B07
:1058900031443A465144504623F0D9FD08E02648A9
:1058A00035F091FC0F22D7E70DB1BE420AD18FB976
:1058B000C4F804902368002203F80920204602B0AF
:1058C000BDE8F0872A460AEB06010AEB070024F040
:1058D00060FBECE73A464146504623F0B8FDE7E767
:1058E000BE42C5D33A464146504624F052FBBFE77C
:1058F0002A460AEB06010AEB070024F04AFBBAE746
:105900003A464146504624F044FBD1E7A3EB080554
:105910002A464146504624F03CFB7A1B0AEB07011D
:105920000AEB050023F093FDC2E700974346324699
:10593000204625F0A1F8BBE704D0030070B5B4B051
:1059400005466E4925F053F900240E9404230F9365
:105950000EAB0C9302260D96234622460CA96846F0
:10596000FEF75CFA694605F1180024F000FD684670
:1059700022F0CEFF12940523139312AB10931196CD
:105980000123224610A96846FEF748FA694605F148
:10599000480024F0ECFC684622F0BAFF1694062377
:1059A000179316AB149315960123224614A9684643
:1059B000FEF734FA694605F1780024F0D8FC684611
:1059C00022F0A6FF1A9407231B931AAB189319967B
:1059D0000123224618A96846FEF720FA694605F118
:1059E000A80024F0C4FC684622F092FF1E940B230A
:1059F0001F931EAB1C931D96234622461CA9684686
:105A0000FEF70CFA694605F1D80024F0B0FC6846B0
:105A100022F07EFF22940C23239322AB2093219625
:105A20002346224620A96846FEF7F8F9694605F59F
:105A3000847024F09CFC684622F06AFF26AB304A52
:105A400092E8030083E80300249325962346224628
:105A500024A96846FEF7E2F9694605F59C7024F032
:105A600086FC684622F054FF2A941B232B932AAB12
:105A7000289329962346224628A96846FEF7CEF9A0
:105A8000694605F5B47024F072FC684622F040FFC8
:105A90002E941A232F932EAB2C932D962346224619
:105AA0002CA96846FEF7BAF9694605F5CC7024F0D2
:105AB0005EFC684622F02CFF30943194234601228C
:105AC00030A96846FEF7AAF9694605F5E47024F0A6
:105AD0004EFC684622F01CFF329433942346012288
